:020000040800F2
:1000000000500020ED5E0008E9230008EB23000803
:10001000ED230008EF230008F12300080000000092
:10002000000000000000000000000000F3230008B2
:10003000F523000800000000F7230008F92300085A
:10004000355F0008355F0008355F0008355F000840
:10005000355F0008355F0008355F0008355F000830
:10006000355F0008355F0008355F0008355F000820
:10007000355F0008355F0008355F0008355F000810
:10008000355F0008355F0008355F0008355F000800
:10009000355F0008355F0008355F0008355F0008F0
:1000A000355F0008355F0008355F0008355F0008E0
:1000B000355F0008355F0008355F0008355F0008D0
:1000C000355F0008355F0008355F0008355F0008C0
:1000D000355F0008355F0008355F0008355F0008B0
:1000E000355F0008355F0008355F0008000000003C
:1000F0000000000000000000000000000000000000
:0C01000000000000000000005FF808F1A3
:10010C0081F0004102E000BF83F0004330B54FEABC
:10011C0041044FEA430594EA050F08BF90EA020F29
:10012C001FBF54EA000C55EA020C7FEA645C7FEABC
:10013C00655C00F0E2804FEA5454D4EB5555B8BFDF
:10014C006D420CDD2C4480EA020281EA030382EA50
:10015C00000083EA010180EA020281EA0303362DE2
:10016C0088BF30BD11F0004F4FEA01314FF4801CB5
:10017C004CEA113102D0404261EB410113F0004FC7
:10018C004FEA03334CEA133302D0524263EB43037E
:10019C0094EA050F00F0A780A4F10104D5F1200E1C
:1001AC000DDB02FA0EFC22FA05F2801841F1000177
:1001BC0003FA0EF2801843FA05F359410EE0A5F14B
:1001CC0020050EF1200E012A03FA0EFC28BF4CF07C
:1001DC00020C43FA05F3C01851EBE37101F0004532
:1001EC0007D54FF0000EDCF1000C7EEB00006EEB3F
:1001FC000101B1F5801F1BD3B1F5001F0CD34908C9
:10020C005FEA30004FEA3C0C04F101044FEA44521F
:10021C0012F5800F80F09A80BCF1004F08BF5FEAA6
:10022C00500C50F1000041EB045141EA050130BD86
:10023C005FEA4C0C404141EB0101013C28BFB1F598
:10024C00801FE9D291F0000F04BF01460020B1FAE3
:10025C0081F308BF2033A3F10B03B3F120020CDAB6
:10026C000C3208DD02F1140CC2F10C0201FA0CF094
:10027C0021FA02F10CE002F11402D8BFC2F1200CF9
:10028C0001FA02F120FA0CFCDCBF41EA0C019040AF
:10029C00E41AA2BF01EB0451294330BD6FEA0404F8
:1002AC001F3C1CDA0C340EDC04F11404C4F12002E3
:1002BC0020FA04F001FA02F340EA030021FA04F3F5
:1002CC0045EA030130BDC4F10C04C4F1200220FA4C
:1002DC0002F001FA04F340EA0300294630BD21FA8A
:1002EC0004F0294630BD94F0000F83F4801306BF50
:1002FC0081F480110134013D4EE77FEA645C18BF44
:10030C007FEA655C29D094EA050F08BF90EA020FDA
:10031C0005D054EA000C04BF1946104630BD91EAD2
:10032C00030F1EBF0021002030BD5FEA545C05D1D5
:10033C004000494128BF41F0004130BD14F5800414
:10034C003CBF01F5801130BD01F0004545F0FE4188
:10035C0041F470014FF0000030BD7FEA645C1ABFBD
:10036C00194610467FEA655C1CBF0B46024650EAF4
:10037C00013406BF52EA033591EA030F41F4002120
:10038C0030BD00BF90F0000F04BF0021704730B5A6
:10039C004FF4806404F132044FF000054FF000017B
:1003AC0050E700BF90F0000F04BF0021704730B53C
:1003BC004FF4806404F1320410F0004548BF404211
:1003CC004FF000013EE700BF42004FEAE2014FEA66
:1003DC0031014FEA02701FBF12F07F4393F07F4F41
:1003EC0081F06051704732F07F4208BF704793F044
:1003FC007F4F04BF41F40021704730B54FF4607457
:10040C0001F0004521F000411CE700BF50EA010259
:10041C0008BF704730B54FF000050AE050EA010202
:10042C0008BF704730B511F0004502D5404261EB72
:10043C0041014FF4806404F132045FEA915C3FF4B3
:10044C00D8AE4FF003025FEADC0C18BF03325FEA50
:10045C00DC0C18BF033202EBDC02C2F1200300FA01
:10046C0003FC20FA02F001FA03FE40EA0E0021FA26
:10047C0002F11444BDE600BF80F0004002E000BF72
:10048C0081F0004142001FBF5FEA410392EA030F73
:10049C007FEA226C7FEA236C6AD04FEA1262D2EBBD
:1004AC001363C1BFD218414048404140B8BF5B42C2
:1004BC00192B88BF704710F0004F40F4000020F05B
:1004CC007F4018BF404211F0004F41F4000121F071
:1004DC007F4118BF494292EA030F3FD0A2F10102BB
:1004EC0041FA03FC10EB0C00C3F1200301FA03F1F9
:1004FC0000F0004302D5494260EB4000B0F5000F1C
:10050C0013D3B0F1807F06D340084FEA310102F1DA
:10051C000102FE2A51D2B1F1004F40EBC25008BF8C
:10052C0020F0010040EA03007047490040EB000056
:10053C00013A28BFB0F5000FEDD2B0FA80FCACF157
:10054C00080CB2EB0C0200FA0CF0AABF00EBC25084
:10055C0052421843BCBFD0401843704792F0000F72
:10056C0081F4000106BF80F400000132013BB5E7C5
:10057C004FEA41037FEA226C18BF7FEA236C21D03B
:10058C0092EA030F04D092F0000F08BF08467047A0
:10059C0090EA010F1CBF0020704712F07F4F04D16E
:1005AC00400028BF40F00040704712F100723CBF81
:1005BC0000F50000704700F0004343F0FE4040F4AB
:1005CC00000070477FEA226216BF08467FEA236369
:1005DC000146420206BF5FEA412390EA010F40F454
:1005EC00800070474FF0000304E000BF10F00043A0
:1005FC0048BF40425FEA000C08BF704743F0964387
:10060C0001464FF000001CE050EA010208BF7047A1
:10061C004FF000030AE000BF50EA010208BF704728
:10062C0011F0004302D5404261EB41015FEA010C3D
:10063C0002BF84460146002043F0B64308BFA3F135
:10064C008053A3F50003BCFA8CF2083AA3EBC25317
:10065C0010DB01FA02FC634400FA02FCC2F1200236
:10066C00BCF1004F20FA02F243EB020008BF20F06D
:10067C000100704702F1200201FA02FCC2F12002D3
:10068C0050EA4C0021FA02F243EB020008BF20EAC8
:10069C00DC7070474FF0FF0C1CEAD0521EBF1CEAF6
:1006AC00D15392EA0C0F93EA0C0F6FD01A4480EAE4
:1006BC00010C400218BF5FEA41211ED04FF00063CD
:1006CC0043EA501043EA5111A0FB01310CF00040F9
:1006DC00B1F5000F3EBF490041EAD3715B0040EA1F
:1006EC00010062F17F02FD2A1DD8B3F1004F40EBEF
:1006FC00C25008BF20F00100704790F0000F0CF0C2
:10070C00004C08BF49024CEA502040EA51207F3A85
:10071C00C2BFD2F1FF0340EAC250704740F4000060
:10072C004FF00003013A5DDC12F1190FDCBF00F051
:10073C0000407047C2F10002410021FA02F1C2F1FF
:10074C00200200FA02FC5FEA310040F1000053EA9B
:10075C004C0308BF20EADC70704792F0000F00F0E9
:10076C00004C02BF400010F4000F013AF9D040EAEF
:10077C000C0093F0000F01F0004C02BF490011F483
:10078C00000F013BF9D041EA0C018FE70CEAD15381
:10079C0092EA0C0F18BF93EA0C0F0AD030F0004C01
:1007AC0018BF31F0004CD8D180EA010000F00040B5
:1007BC00704790F0000F17BF90F0004F084691F073
:1007CC00000F91F0004F14D092EA0C0F01D14202AD
:1007DC000FD193EA0C0F03D14B0218BF084608D176
:1007EC0080EA010000F0004040F0FE4040F40000C0
:1007FC00704740F0FE4040F4400070474FF0FF0C53
:10080C001CEAD0521EBF1CEAD15392EA0C0F93EA99
:10081C000C0F69D0A2EB030280EA010C49024FEAEB
:10082C00402037D04FF0805343EA111143EA1013A4
:10083C000CF000408B4238BF5B0042F17D024FF45C
:10084C00000C8B4224BF5B1A40EA0C00B3EB510F37
:10085C0024BFA3EB510340EA5C00B3EB910F24BF20
:10086C00A3EB910340EA9C00B3EBD10F24BFA3EBA5
:10087C00D10340EADC001B0118BF5FEA1C1CE0D16D
:10088C00FD2A3FF650AF8B4240EBC25008BF20F020
:10089C00010070470CF0004C4CEA50207F32C2BF74
:1008AC00D2F1FF0340EAC250704740F400004FF011
:1008BC000003013A37E792F0000F00F0004C02BF42
:1008CC00400010F4000F013AF9D040EA0C0093F00C
:1008DC00000F01F0004C02BF490011F4000F013B66
:1008EC00F9D041EA0C0195E70CEAD15392EA0C0FCE
:1008FC0008D142027FF47DAF93EA0C0F7FF470AF06
:10090C00084676E793EA0C0F04D14B023FF44CAF48
:10091C0008466EE730F0004C18BF31F0004CCAD1DD
:10092C0030F000427FF45CAF31F000437FF43CAF19
:10093C005FE700BF4FF0FF3C06E000BF4FF0010C3B
:10094C0002E000BF4FF0010C4DF804CD4FEA40021D
:10095C004FEA41037FEA226C18BF7FEA236C11D067
:10096C0001B052EA530C18BF90EA010F58BFB2EB1A
:10097C00030088BFC81738BF6FEAE17018BF40F09A
:10098C00010070477FEA226C02D15FEA402C05D14E
:10099C007FEA236CE4D15FEA412CE1D05DF8040BD3
:1009AC00704700BF844608466146FFE70FB5FFF766
:1009BC00C9FF002848BF10F1000F0FBD4DF808ED1E
:1009CC00FFF7F4FF0CBF012000205DF808FB00BF0F
:1009DC004DF808EDFFF7EAFF34BF012000205DF869
:1009EC0008FB00BF4DF808EDFFF7E0FF94BF0120B6
:1009FC0000205DF808FB00BF4DF808EDFFF7D2FFB3
:100A0C0094BF012000205DF808FB00BF4DF808EDF5
:100A1C00FFF7C8FF34BF012000205DF808FB00BFC2
:100A2C004FEA4002B2F1FE4F0FD34FF09E03B3EBEF
:100A3C0012620DD94FEA002343F0004310F0004F2F
:100A4C0023FA02F018BF404270474FF00000704785
:100A5C0012F1610F01D1420205D110F0004008BF24
:100A6C006FF0004070474FF000007047034613F8DA
:100A7C00012B002AFBD1181A0138704770B50446B7
:100A8C0016461D460B7863B101461068FFF7BEFF92
:100A9C0000B1346021462868FFF79AFF28B12C601A
:100AAC0003E03060286001230B7070BD10B5FFF7B8
:100ABC009DFD01460F4B1B782BB90F4C2068FFF79F
:100ACC00E1FC206010BD012B07D0022B0BD00B4C8E
:100ADC002068FFF7D7FC2060F4E7094C2068FFF78B
:100AEC00D1FC2060EEE7074C2068FFF7CBFC2060C0
:100AFC00E8E700BFB800002008000020000000203C
:100B0C0004000020C000002038B50D4B1C680D4BB4
:100B1C001D6829462046FFF779FF18B1084B1D6068
:100B2C00084B1C60084B1C68084B1D682946204666
:100B3C00FFF76CFF18B1044B1D60044B1C6038BDF3
:100B4C000800002004000020C0000020000000204D
:100B5C0000E00130037833B1A3F13002D2B2092A9C
:100B6C0001D92D2BF5D12D2B03D04FF0010C0023E7
:100B7C000BE001304FF0FF3CF9E703EB83035B0024
:100B8C009BB20B44303B1BB201300178A1F1300217
:100B9C00D2B2092AF1D90CFB03F000B27047000065
:100BAC0000B585B0684601F0A9F858B1009A074B1A
:100BBC001A60019A064B1A60029A064B1A60039A45
:100BCC00054B1A6005B05DF804FB00BF080000205F
:100BDC0004000020C00000200000002010B50446D6
:100BEC00FFF744FF642382B22146024803F0E7FB7F
:100BFC0010BD00BF440A002000B585B0084B1B682F
:100C0C000093084B1B680193074B1B680293074B1F
:100C1C001B680393684601F095F805B05DF804FB7A
:100C2C000800002004000020C0000020000000206C
:100C3C0038B505460C4603221A4905F0C5F950B9DA
:100C4C002046FFF7D3FC184B1860FFF75DFFFFF74A
:100C5C00D3FF012038BD03221449284605F0B4F90E
:100C6C0028B92046FFF7C2FC114B1860EDE70322B0
:100C7C001049284605F0A8F928B92046FFF7B6FC1C
:100C8C000D4B1860E1E703220C49284605F09CF94E
:100C9C0028B92046FFF7AAFC094B1860D5E70020BD
:100CAC00D8E700BF38690008080000203C6900083C
:100CBC000400002040690008C000002044690008BE
:100CCC000000002030B5B7B00446002301E001332A
:100CDC00DBB2E25C3AB1A2F16101C9B21929F6D8D2
:100CEC00203AE254F3E703223F49204605F06CF921
:100CFC0008B304223D49204605F066F900284CD083
:100D0C0005223B49204605F05FF9002856D0042205
:100D1C003849204605F058F9002861D1364B1B782C
:100D2C002BB1364A1378B3FA83F35B09137034484A
:100D3C00FFF754FF2FE00EAC2F4B1B780C93314B6D
:100D4C001B780B93304B1B780A93304B1B88099301
:100D5C002F4B1B7808932F4B1868FFF735FBCDE909
:100D6C0006012D4B1868FFF72FFBCDE904012B4B27
:100D7C001868FFF729FBCDE90201294B1868FFF72A
:100D8C0023FBCDE90001274AA021204605F0CEF82F
:100D9C002046FFF723FF37B030BD251DE01DFFF7C0
:100DAC00D7FE01462846FFF743FF18B11448FFF75A
:100DBC0015FFF0E71C48FFF711FFECE7184B1B4A37
:100DCC001A60164B1A4A1A60134B00221A60114B08
:100DDC00184A1A60FFF710FF0948FFF7FFFEDAE721
:100DEC001548FFF7FBFED6E7486900089069000834
:100DFC00A8690008B0690008BC000020BB000020F6
:100E0C0098690008BD000020BE000020B40000203E
:100E1C00BA00002000000020C000002004000020C8
:100E2C00080000204C690008A0690008000020415F
:100E3C00000070420000C842B869000810B582B0CA
:100E4C0002E0124B1B78BBB9002301220DF1070104
:100E5C000F4803F019FBB8B99DF807300D2BF0D0F3
:100E6C000A2BEED0094A12782E2AEDD8501C0749CD
:100E7C00087008498B54E7E706480024C454FFF770
:100E8C0021FF024B1C70DFE702B010BDA000002058
:100E9C00440A00207000002010B582B03E4C0122A4
:100EAC004FF48051204601F080FC002202212046A4
:100EBC0001F07BFC00220121204601F076FC01228E
:100ECC004FF40051354801F070FCFFF769FE3448CF
:100EDC0000F08AFD00F07CFD324A0021084600F04B
:100EEC00E3FD314A0021012000F0DEFD69462F4868
:100EFC0000F094FE2E4B1870002834D12C4B1B782C
:100F0C00002B39D02B4A0021022000F0CDFD01A886
:100F1C0000F084FB284B187000282FD1264B1B782F
:100F2C00002B34D0254A0021032000F0BDFD00F039
:100F3C0085FF234B187060B3224A0021042000F077
:100F4C00B3FD0021204B1970204A052000F0ACFDA8
:100F5C004FF4966001F09AFA00F03AFD1C48FFF746
:100F6C003DFE02B010BD00981A4B18601A4B1B4A7C
:100F7C001B49FFF783FDC1E71A4AC4E701981A4BD6
:100F8C0018601A4B1A4A1B49FFF778FDC6E71A4A34
:100F9C00C9E71A4AD1E700BF000C0140001001401C
:100FAC00E40A0020386A0008446A0008380B002064
:100FBC00C6000020086A0008C7000020186A000854
:100FCC00BA000020286A0008B90000204C6A00080A
:100FDC00586A0008D8000020C8000020CC0000206F
:100FEC00C4000020106A0008DC000020D0000020A3
:100FFC00D4000020C5000020206A0008306A0008D8
:10100C0070B5B4B001F03CFA044600F06DFB054637
:10101C00FFF714FF681E03281CD8DFE800F0133517
:10102C000C02854B1B78ABB1844A1378B3FA83F36B
:10103C005B0913700EE0824A1378013303F003034B
:10104C00137007E04FF0FF30FFF730FDFFF75CFD4A
:10105C00FFF7D2FD7B4B1B68E31A43F697229342B2
:10106C0016D8794B1B68E31AB3F5FA7F80F0BC8075
:10107C00714B1B78002B00F0BF80704B1B78002B42
:10108C0000F0D8800020B8E00120FFF70FFDDDE76D
:10109C0013A96E4800F0C2FD6D4B1870F0B912A880
:1010AC0000F0BCFA6B4B187008BB6A4B1B783BB357
:1010BC00694B1D68694B19682846FFF789FC28B9EC
:1010CC00674B19682846FFF7A1FCC8B1654B1B7824
:1010DC00012B18D80133634A137014E01398624B38
:1010EC001860624B624A6349FFF7C8FCD7E7129855
:1010FC00594B1860604B614A6149FFF7BFFCD4E75C
:10110C00584B00221A70524B1B78ABB1564B1D68D2
:10111C005C4B19682846FFF75BFC28B95A4B1968D9
:10112C002846FFF773FC38B1584B1B78012B06D8B7
:10113C000133564A137002E0544B00221A70494B8B
:10114C001D78012D94BF00250125514B1D704F4B6F
:10115C001B78012B94BF002301234E4A13701DB939
:10116C00002B3FD0012100E00121CAB232480270AD
:10117C0012B9324A00201070324A146014AE2F4A51
:10118C00127810920F910E933F4B1868FFF71CF9D1
:10119C00CDE90C013B4B1868FFF716F9CDE90A01B4
:1011AC00314B1868FFF710F9CDE9080106952C4B67
:1011BC001868FFF709F9CDE90401284B1868FFF707
:1011CC0003F9CDE90201244B1868FFF7FDF8CDE9CE
:1011DC000001314A8021304604F0A8FE3046FFF76A
:1011EC00FDFC3EE70021C0E74FF400512B4801F015
:1011FC00E2FA154B1C603BE7002000F0F9F8284B95
:10120C001B68E31AB3F5FA7F50D2264B1B68E31A1E
:10121C0043F6972293420BD9234B1B78002B00F0FB
:10122C008280214B1B78002B40F082801D4B1C6070
:10123C0034B070BD0120E0E7BC000020BB000020F2
:10124C00B8000020B0000020A4000020380B0020C3
:10125C00C6000020C7000020DC0000200800002091
:10126C0004000020B7000020D8000020C800002097
:10127C00CC000020C4000020D0000020D4000020AE
:10128C00C5000020C000002000000020B600002097
:10129C00BE000020BD000020786A0008001001404C
:1012AC00AC000020A8000020BA000020324B1B68C4
:1012BC000F93324B1B680E93314B1B680D93314BC4
:1012CC001B680C93304B1B880B93304B1B780A9389
:1012DC002F4B1B7809932F4B1B7808932E4B1B78A5
:1012EC0007932E4B1B7806932D4B1B7805932D4B98
:1012FC001B7804932C4B1B6803932C4B1B68029399
:10130C002B4B1B6801932B4B1B6800932A4B1B78B0
:10131C002A4A12782A4909682A48006800F0CAFB50
:10132C00294B1C6071E700F089FD194B187078E7A8
:10133C001A4B1B7804931A4B1B780393194B1B788D
:10134C000293194B1B680193184B1B680093184BA5
:10135C001B68184A12681A4909681A48006800F094
:10136C007BFD00287FF462AF074A1388013313809A
:10137C00074B00221A7059E7C8000020CC0000204F
:10138C00D0000020D4000020B4000020B9000020C0
:10139C00BA000020B8000020BB000020BC000020D8
:1013AC00BD000020BE00002000000020C000002076
:1013BC000400002008000020C6000020C700002008
:1013CC00D8000020DC000020AC00002038B5041E42
:1013DC0018BF0124054D22460221284601F0E5F9EB
:1013EC0022460121284601F0E0F938BD000C0140ED
:1013FC0008B538B101F044F80B4B1B68C01AC7286C
:10140C0005D808BD094B1870FFF7E0FFF9E7074B4B
:10141C00187880F001001870FFF7D8FF01F030F851
:10142C00014B1860EDE700BFE0000020E400002055
:10143C00074B5A68074B1B680749A1FB03139B0C0E
:10144C0003FB00F0024B5B689B1A8342FAD3704794
:10145C00001000E00C00002083DE1B4310B5044696
:10146C004FF0000E704614E04FEA5C0C0133DBB217
:10147C00072B0AD880EA0C0212F0010F4FEA500039
:10148C00F2D080F08C00C0B2EEE70EF1010E5FFAE4
:10149C008EFE8E4503D214F80EC00023E8E710BD73
:1014AC0000B585B069460023009301930293039322
:1014BC000123009311220192029303230393034807
:1014CC0001F062F805B05DF804FB00BF00080140B4
:1014DC0010B50446FFF7E4FF002201210D4801F08E
:1014EC0064F95CB10620FFF7A3FF012211460948FD
:1014FC0001F05BF94020FFF79BFF10BD3C20FFF78C
:10150C0097FF01221146034801F04FF90A20FFF71B
:10151C008FFFF2E70008014038B50546002406E0CD
:10152C0005F00100FFF7D4FF6D080134E4B2072C7D
:10153C00F6D938BD00B585B06946002300930193F8
:10154C0002930393012300930293034801F01CF8C8
:10155C0005B05DF804FB00BF0008014010B5FFF7B3
:10156C009FFF104C00220121204601F01EF94FF480
:10157C00F070FFF75DFF01221146204601F015F9CE
:10158C00FFF7D8FF4620FFF753FF0121204601F05B
:10159C0005F9B0FA80F464094FF4CD70FFF748FFF9
:1015AC00204610BD0008014010B5FFF779FF104C24
:1015BC0000220121204601F0F8F80620FFF738FF41
:1015CC0001221146204601F0F0F8FFF7B3FF092085
:1015DC00FFF72EFF0121204601F0E0F8012814BF8F
:1015EC00002401243720FFF723FF204610BD00BF45
:1015FC000008014038B50024254601E00134E4B26E
:10160C00072C08D86D08FFF7CFFF0028F6D065F03F
:10161C007F05EDB2F2E7284638BD000030B585B045
:10162C0005462C4AD2F8FC3043F08073C2F8FC30EB
:10163C00A2F55D42136843F001031360FFF78EFFC0
:10164C0008B905B030BDCC20FFF766FF4420FFF78A
:10165C0063FF40F2EE2000F019FFFFF77FFF002838
:10166C00EFD0CC20FFF758FFBE20FFF755FF00242A
:10167C00082C09D8FFF7BEFF04F110036B4403F8E4
:10168C000C0C0134E4B2F3E7082101A8FFF7E6FEE5
:10169C009DF80C30984216D19DF80500000200B25E
:1016AC009DF804301843B0F1FF3F0ED047F6FF739E
:1016BC0098420CD0FEF79AFF4FF07651FEF7EAFFF6
:1016CC0028600120BDE70020BBE70020B9E700201F
:1016DC00B7E700BF00ED00E008B501F05FF8B0FA25
:1016EC0080F0400908BD0000F8B500F0C9FE0746BF
:1016FC00244C08212046FFF7EFFF06461021204618
:10170C00FFF7EAFF054620212046FFF7E5FF0446D8
:10171C004EB905B918B16DB96CB103240BE01A4B75
:10172C0000221A7010E01DB9002EF4D0012402E042
:10173C00042400E00224144B1B78A34206D1631E40
:10174C00DBB2012B0CD900242046F8BD142000F08C
:10175C009DFE0D4B1C700D4B1F600D4B1F60F3E776
:10176C000A4B1B68FB1AB3F57A7F09D3084B1B682D
:10177C00FB1AF92B01D80024E6E7054B1F60E3E7C1
:10178C000024E1E7000C0140F0000020EC000020F8
:10179C00E800002030B50446154601EB41014FEA44
:1017AC00410E14E00EEBC41119441CF80300134A4B
:1017BC0050540133DBB2042BF4D90EEBC4130533B4
:1017CC000E4A0021D1540EF1060E1FFA8EFE2B7814
:1017DC009BB1BEF17A0F10D8072C0ED80135A3F1AE
:1017EC002002D2B23A2A00D92023203B03EB8303F8
:1017FC00034A03EB020C0023DDE730BDA4010020FB
:10180C00C86B000810B504460021FFF7F5F858B96D
:10181C000B492046FEF73EFF4FF07C51FEF730FEA1
:10182C00FFF7FEF800B210BD05492046FEF732FF67
:10183C004FF07C51FEF726FEFFF7F2F800B2F2E70C
:10184C000000204128B1012805D0022805D0044809
:10185C00704704487047044870470448704700BFFD
:10186C0044690008386900083C69000840690008B0
:10187C0000B585B000238DF80C308DF80D00642375
:10188C000093022303AA78210348006802F0E8F9C8
:10189C0005B05DF804FB00BFA405002010B5A4B092
:1018AC00002420E0A4F15000C0B2FFF7E1FF0020BB
:1018BC00FFF7DEFF1020FFF7DBFF40238DF80C3025
:1018CC0080220B4901EBC4110DF10D0004F0B4FBA7
:1018DC00C8230093812303AA78210648006802F0EC
:1018EC00BFF90134E4B2072CDCD924B010BD00BF21
:1018FC00A4010020A4050020F0B585B005460E46D5
:10190C00174618469DF82830F3B1FFF77BFFB0F16E
:10191C00000C1FDB2B21124A82FB0C324FEAEC73BA
:10192C00C3EBA20303EB8302ACEB420C0FFA8CF477
:10193C0002941BB2019300913B460A4A3146284659
:10194C0004F0F4FA05B0F0BD1346074A284604F03B
:10195C00EDFAF7E7CCF1000C0FFA8CFC2D21DAE74D
:10196C0067666666C06A0008B86A0008F0B585B09C
:10197C0004460D4616461F460B98FFF751F8029089
:10198C000A9B01933846FFF74BF800903346034A05
:10199C002946204604F0CAFA05B0F0BDD06A00080A
:1019AC00F0B583B004460D4616461F460898FFF75F
:1019BC0037F801903846FFF733F800903346034A66
:1019CC002946204604F0B2FA03B0F0BDE06A0008E4
:1019DC0008B54FF480620021024804F0EDFAFFF7DD
:1019EC005DFF08BDA401002008B52E4B18606420D3
:1019FC0000F04CFDAE20FFF73BFF2020FFF738FF37
:101A0C000020FFF735FFB020FFF732FFC820FFF7AB
:101A1C002FFF0020FFF72CFF1020FFF729FF40209D
:101A2C00FFF726FF8120FFF723FF7F20FFF720FF22
:101A3C00A120FFF71DFFA620FFF71AFFA820FFF734
:101A4C0017FF3F20FFF714FFA420FFF711FFD3204F
:101A5C00FFF70EFF0020FFF70BFFD520FFF708FF65
:101A6C008020FFF705FFD920FFF702FFF120FFF7D9
:101A7C00FFFEDA20FFF7FCFE1220FFF7F9FEDB2059
:101A8C00FFF7F6FE4020FFF7F3FE8D20FFF7F0FE88
:101A9C001420FFF7EDFEAF20FFF7EAFEFFF798FFEB
:101AAC0008BD00BFA405002008B5FFF773FEFFF7C3
:101ABC00F5FE08BD70B5B0B00C461D4604AE0092E4
:101ACC0003464A4A16213046FFF716FF0095234677
:101ADC00474A16210DF12600FFF70EFF359B0193A7
:101AEC00444B0093349B444A16210FA8FFF73EFF4A
:101AFC00379B0193414B0093369B414A16210DF1C4
:101B0C005200FFF733FF9DF8E83001939DF8E43065
:101B1C0000939DF8E0303B4A16211AA804F006FA0F
:101B2C009DF8F000FFF78EFEBDF8FC3002939DF897
:101B3C00F430019300909DF8EC30334A16210DF1EE
:101B4C007E0004F0F3F9419B0093409B2F4A162131
:101B5C0025A8FFF725FF439B0093429B2C4A162197
:101B6C000DF1AA00FFF71CFFB0222A49304604F001
:101B7C0013FA08B930B070BDB0223146254804F0D4
:101B8C005BFA4FF480620021234804F015FA3246C8
:101B9C0000210846FFF7FEFD0DF126020021012071
:101BAC00FFF7F8FD0FAA00210220FFF7F3FD0DF15E
:101BBC00520200210320FFF7EDFD1AAA0021042098
:101BCC00FFF7E8FD0DF17E0200210520FFF7E2FD95
:101BDC0025AA00210620FFF7DDFD0DF1AA02002148
:101BEC000720FFF7D7FDFFF759FEC3E7F06A00089F
:101BFC00F46A00083C690008386900084469000868
:101C0C0040690008F86A00080C6B0008206B00089B
:101C1C00246B0008F4000020A401002070B50446D9
:101C2C000D4601F06FFC1421204601F0C1FAA8B951
:101C3C00204601F07FFB0646204601F087FD30462A
:101C4C00FEF7D0FC0849FEF725FD0849FEF7D6FD46
:101C5C000749FEF71FFD2860012070BD204601F0EA
:101C6C0075FD0020F9E700BF3333534000F07F458A
:101C7C00CDCC4C4201460023044803E0CA5C02EB85
:101C8C00F06001330F2BF9D9704700BF682457134C
:101C9C00F8B504460568466831462846FEF7A2FEAC
:101CAC00E0B1A768E46821463846FEF79BFEB8B160
:101CBC000F492846FEF7AAFEA0B10E493046FEF7A2
:101CCC0087FE88B10A493846FEF7A0FE70B10A4972
:101CDC002046FEF77DFE10B1012000E00020F8BD8B
:101CEC000020FCE70020FAE70020F8E70020F6E7E8
:101CFC000000C8C20000164300007A4338B50E4BF2
:101D0C001A680E4B9A4213D104460B4B5D690C4872
:101D1C00FFF7B0FF85420DD10948FFF7B9FF40B17D
:101D2C00074D0FCD20606160A260E360012000E0F0
:101D3C00002038BD0020FCE700FC0008504D495441
:101D4C0004FC000870B58CB0044600230193FFF727
:101D5C009FFF064610B930460CB070BD194B069368
:101D6C0007AD94E80F0085E80F002046FFF782FFCF
:101D7C000B9001F0FFF800230293134B0493012303
:101D8C00059301A902A801F0C1F9B0B901260024FC
:101D9C000D4D01E0023501348EB10B2C0FD80CAB7C
:101DAC0003EB440333F8182C00232946012001F0DF
:101DBC0039F90028EED00026ECE70026E7E701F021
:101DCC00F3F8C8E7504D495400FC000810B5044620
:101DDC000021FEF711FE50B10A492046FEF75AFCCD
:101DEC004FF07C51FEF74EFBFEF71AFE10BD054975
:101DFC002046FEF74FFC4FF07C51FEF741FBFEF7FF
:101E0C000FFEF3E70000204100B583B0094B83FBC4
:101E1C00023CD317C3EBAC0303EB830CB2EB4C02C9
:101E2C0006D40092044A04F081F803B05DF804FB78
:101E3C005242F6E767666666286B000808B5012211
:101E4C000349044803F0BEFAB0FA80F0400908BD1B
:101E5C00306B0008CC0700202DE9F04FBFB00746CF
:101E6C000E4690461D4600243D9412224C494D4886
:101E7C0003F0D4FA002840F08E800446494BD3F886
:101E8C000C326BB93DAB4D224749464803F090FBF1
:101E9C0010B93D9B4D2B03D0424803F0F7FC7BE07F
:101EAC004048D0F80C1203F0FFFC8146002869D1A1
:101EBC003846FFF78BFF02461AAF0C213846FFF766
:101ECC00A3FF3046FFF782FF024617AE0C213046C7
:101EDC00FFF79AFF4046FFF779FF02460DF15008D5
:101EEC000C214046FFF790FF2846FFF76FFF024694
:101EFC0011AD0C212846FFF787FF4898FFF766FFC6
:101F0C0002460DF1380A0C215046FFF77DFF499827
:101F1C00FFF75CFF02460DF12C0B0C215846FFF726
:101F2C0073FF00F0ADFA03461DAC9DF8302108920A
:101F3C009DF82C2107929DF828210692CDF814B01B
:101F4C00CDF810A00395CDF8088001960097174A9C
:101F5C008021204603F0EAFF2046FEF787FD02466B
:101F6C003DAB21460F4803F023FB78B90D4803F035
:101F7C008DFC1DA8FEF77AFD3D9C844214BF002405
:101F8C00012409E0074803F081FC05E0054803F053
:101F9C007DFC4C4600E0002420463FB0BDE8F08FAD
:101FAC00346B0008A8050020446B0008946B0008F3
:101FBC002DE9F04788B004AD0024049405940694F0
:101FCC0007944F4B9A6942F010029A619A6902F099
:101FDC0010020192019A9A6942F004029A619A697C
:101FEC0002F004020292029A9A6942F008029A6183
:101FFC009B6903F008030393039BDFF808A12246B7
:10200C004FF40051504600F0D0FBDFF8FC90224614
:10201C000121484600F0C9FB3C4E224603213046C4
:10202C0000F0C3FB01224FF48051304600F0BDFBA1
:10203C004FF4005304934FF00108CDF8148006942C
:10204C00022707972946504600F09EFACDF81080DB
:10205C00CDF81480069407972946484600F094FA68
:10206C0004974FF0030ACDF814A02946484600F017
:10207C008BFA4FF4017304930597CDF81CA02946F5
:10208C00484600F081FA4FF481630493059406945A
:10209C002946484600F078FA41F203030493CDF840
:1020AC001480069407972946304600F06DFA4FF4D9
:1020BC00204304930597CDF81CA02946304600F028
:1020CC0063FA4FF4804304930594069429463046F2
:1020DC0000F05AFA382304930594CDF81880294659
:1020EC00304600F051FAC023049312230593CDF827
:1020FC001CA02946304600F047FA08B0BDE8F0872E
:10210C00001002400010014000080140000C01408A
:10211C0072B6FEE700B585B00023019302930393DA
:10212C000F48104A02608360037303754FF46022FA
:10213C00C26143600123036101F084FA60B9012399
:10214C00019302930523039301A9054801F0F6F8C6
:10215C0020B905B05DF804FBFFF7DAFFFFF7D8FFF5
:10216C00380B00200024014008B50A480A4B0360D4
:10217C000A4B436000238360C3604FF480420261CA
:10218C0043618361C361036201F08CFC00B908BD3B
:10219C00FFF7BEFFE40A002000540040A0860100B7
:1021AC0008B50D480D4B03604FF482734360002358
:1021BC008360C360036143614FF400728261382213
:1021CC00C2610362436283620A23C36201F088FE28
:1021DC0000B908BDFFF79CFF8C0A002000380040B6
:1021EC0008B50A480A4B03604FF4E13343600023FF
:1021FC008360C36003610C2242618361C36102F09E
:10220C00AEF800B908BDFFF783FF00BF440A0020F9
:10221C000038014008B50A480A4B03604FF4E1331B
:10222C00436000238360C36003610C2242618361BD
:10223C00C36102F094F800B908BDFFF769FF00BF55
:10224C00FC0900200044004010B590B006AC2822D8
:10225C000021204603F0B0FE002301930293039368
:10226C00049305930223069301230A9310230B93E3
:10227C00204600F0BFFA60B90F23019300210291B0
:10228C0003910491059101A800F0E6FC18B910B077
:10229C0010BDFFF73DFFFFF73BFF08B500F0D2F88C
:1022AC00FFF7D2FFFFF784FEFFF734FFFFF75CFF69
:1022BC00FFF776FFFFF794FFFFF7ACFFFEF7ECFD9F
:1022CC00FEF79EFEFCE7000082B00E4B9A6942F0CE
:1022DC0001029A619A6902F001020092009ADA698D
:1022EC0042F08052DA61DB6903F080530193019B69
:1022FC00054A536823F0E06343F00073536002B067
:10230C00704700BF00100240000001400268094BFA
:10231C009A4200D0704782B003F56C439A6942F43C
:10232C0000729A619B6903F400730193019B02B0E4
:10233C00704700BF002401400268094B9A4200D04C
:10234C00704782B003F5DE33DA6942F40012DA61C9
:10235C00DB6903F400130193019B02B0704700BFCB
:10236C00005400400268094B9A4200D0704782B07A
:10237C0003F5EC33DA6942F48042DA61DB6903F489
:10238C0080430193019B02B0704700BF00380040AE
:10239C0082B003680E4A934204D00E4A93420CD08A
:1023AC0002B070470C4B9A6942F480429A619B6967
:1023BC0003F480430093009BF2E7074BDA6942F485
:1023CC000032DA61DB6903F400330193019BE7E728
:1023DC00003801400044004000100240FEE7FEE7D8
:1023EC00FEE7FEE7FEE770477047704708B500F060
:1023FC003BF808BD7047000010B504460E4B1A7828
:10240C004FF47A73B3FBF2F30C4A1068B0FBF3F0A1
:10241C0000F0A6F868B90F2C01D901200AE00022BF
:10242C0021464FF0FF3000F08BF8054B1C6000206C
:10243C0000E0012010BD00BF100000200C000020A7
:10244C001400002008B5074A136843F0100313600A
:10245C00032000F063F80F20FFF7CEFFFFF734FFE7
:10246C00002008BD00200240034A1168034B1B7872
:10247C000B441360704700BF680B00201000002055
:10248C00014B1868704700BF680B002038B5044634
:10249C00FFF7F6FF0546B4F1FF3F02D0044B1B7863
:1024AC001C44FFF7EDFF401BA042FAD338BD00BF20
:1024BC0010000020002808DB0901C9B200F16040BF
:1024CC0000F5614080F80013704700F00F0009011F
:1024DC00C9B2014B1954704714ED00E000B500F07F
:1024EC000700C0F1070CBCF1040F28BF4FF0040C1F
:1024FC00031D062B0FD9C31E4FF0FF3E0EFA0CF036
:10250C0021EA000199400EFA03FE22EA0E0241EA8A
:10251C0002005DF804FB0023EEE70000074AD368D5
:10252C0023F4E0631B041B0C000200F4E060034383
:10253C0043F0BF6343F40033D360704700ED00E019
:10254C0010B50446054BD868C0F30220FFF7C6FF50
:10255C0001462046FFF7AEFF10BD00BF00ED00E0C6
:10256C000138B0F1807F0BD24FF0E0235861054A5F
:10257C00F02182F823100020986107221A6170471D
:10258C000120704700ED00E070B582B00024A44635
:10259C009EE07C4DAB4214D00CD8A5F58015AB4217
:1025AC000FD005F57025AB420BD0A5F58015AB42CD
:1025BC001FD106E0744DAB4203D005F58035AB421C
:1025CC0017D18B68A3B1012B0DD04261082410E008
:1025DC00CC680EE0CC6804340BE0CC68083408E01E
:1025EC00CC680C3405E00261082402E0002400E011
:1025FC000424BEF1FF0F37D806464FEA8C0233682D
:10260C000F25954023EA050304FA02F213433360C5
:10261C004B6813F0805F59D05C4B9A6942F0010211
:10262C009A619B6903F001030193019B4FEA9C02A1
:10263C00951C574B53F825600CF00305AD000F2388
:10264C00AB4026EA0306534B984214D003F5806343
:10265C00984279D003F58063984277D003F5806374
:10266C00984206D0042307E0061DACF10802920044
:10267C00C5E7032300E00023AB4033430232444D53
:10268C0045F822304B6813F4801F61D0424A93689E
:10269C0043EA0E0393604B6813F4001F5ED03E4A6E
:1026AC00D36843EA0E03D3604B6813F4003F5BD04E
:1026BC00394A536843EA0E0353604B6813F4803F66
:1026CC0058D0354A136843EA0E0313600CF1010C21
:1026DC000B6833FA0CF253D0012202FA0CF203EA23
:1026EC00020E32EA0303F1D14B68122B3FF651AFC5
:1026FC00122B3FF67EAF01A555F823F0CF2500082D
:10270C00DD250008E7250008F9250008FF2500084D
:10271C00FF250008FF250008FF250008FF250008FD
:10272C00FF250008FF250008FF250008FF250008ED
:10273C00FF250008FF250008FF250008FF250008DD
:10274C00E1250008ED250008012395E7022393E716
:10275C00114A936823EA0E0393609CE70E4AD368F0
:10276C0023EA0E03D3609FE70B4A536823EA0E0358
:10277C005360A2E7084A136823EA0E031360A5E727
:10278C0002B070BD00002210000031100010024099
:10279C000000014000080140000401408368194218
:1027AC0001D001207047002070470AB101617047C9
:1027BC00090401617047C36801EA030221EA0301BD
:1027CC0041EA02410161704782B0084B1B68084A1C
:1027DC00A2FB03235B0A00FB03F3019300BF019BE5
:1027EC005A1E0192002BF9D102B070470C00002048
:1027FC00D34D6210002800F0F18170B582B0044610
:10280C00036813F0010F2CD0994B5B6803F00C0399
:10281C00042B1DD0964B5B6803F00C03082B12D0D5
:10282C006368B3F5803F41D0002B55D103F1804351
:10283C0003F504331A6822F480321A601A6822F401
:10284C0080221A6037E08A4B5B6813F4803FE7D034
:10285C00874B1B6813F4003F03D06368002B00F018
:10286C00BF81236813F0020F75D0814B5B6813F0A6
:10287C000C0F5FD07E4B5B6803F00C03082B54D01D
:10288C002369002B00F08A807A4B01221A60FFF733
:10289C00F7FD0546764B1B6813F0020F75D1FFF759
:1028AC00EFFD401B0228F5D903209EE1704A136806
:1028BC0043F480331360636843B3FFF7E1FD0546CF
:1028CC006B4B1B6813F4003FCBD1FFF7D9FD401BBA
:1028DC006428F5D9032088E1B3F5A02F09D0644B07
:1028EC001A6822F480321A601A6822F480221A6064
:1028FC00E1E703F18043A3F53C331A6842F48022EC
:10290C001A601A6842F480321A60D4E7FFF7B8FDF7
:10291C000546574B1B6813F4003FA2D0FFF7B0FDE0
:10292C00401B6428F5D903205FE1514B5B6813F41D
:10293C00803FA5D14E4B1B6813F0020F03D02369C7
:10294C00012B40F04F814A4A136823F0F803616968
:10295C0043EAC1031360236813F0080F33D0A36953
:10296C00002B5CD0434B0122C3F88024FFF788FD79
:10297C0005463F4B5B6A13F0020F21D1FFF780FD38
:10298C00401B0228F5D903202FE1394A136823F0A4
:10299C00F803616943EAC1031360DCE7354B00229D
:1029AC001A60FFF76DFD0546314B1B6813F0020FE3
:1029BC00D1D0FFF765FD401B0228F5D9032014E1A7
:1029CC000120FFF701FF236813F0040F00F096803D
:1029DC00274BDB6913F0805F34D1254BDA6942F069
:1029EC008052DA61DB6903F080530193019B01256E
:1029FC00214B1B6813F4807F26D0E368012B3DD05C
:102A0C00002B53D103F1804303F504331A6A22F0EF
:102A1C0001021A621A6A22F004021A6233E0154BA0
:102A2C000022C3F88024FFF72BFD0546104B5B6A90
:102A3C0013F0020FC7D0FFF723FD401B0228F5D976
:102A4C000320D2E00025D3E70B4A136843F48073CC
:102A5C001360FFF715FD0646074B1B6813F4807FC8
:102A6C00CBD1FFF70DFD801B6428F5D90320BCE00A
:102A7C000010024000004242007000405F4A136A9E
:102A8C0043F001031362E36833B3FFF7F9FC064626
:102A9C005A4B1B6A13F0020F2FD1FFF7F1FC801B6E
:102AAC0041F288339842F3D903209EE0052B09D0DC
:102ABC00524B1A6A22F001021A621A6A22F00402BC
:102ACC001A62E0E74D4B1A6A42F004021A621A6A63
:102ADC0042F001021A62D6E7FFF7D2FC0646474BDA
:102AEC001B6A13F0020F08D0FFF7CAFC801B41F2DF
:102AFC0088339842F3D9032077E0E5B9E369002BDA
:102B0C0072D03E4A526802F00C02082A56D0022BB0
:102B1C0017D03B4B00221A66FFF7B2FC0446374B2A
:102B2C001B6813F0007F47D0FFF7AAFC001B02289C
:102B3C00F5D9032059E0314AD36923F08053D3618E
:102B4C00DCE72F4B00221A66FFF79AFC05462B4B4D
:102B5C001B6813F0007F06D0FFF792FC401B022885
:102B6C00F5D9032041E0236AB3F5803F1AD02349FD
:102B7C004B6823F47413226A606A024313434B605C
:102B8C001F4B01221A66FFF77BFC04461B4B1B688C
:102B9C0013F0007F0ED1FFF773FC001B0228F5D950
:102BAC00032022E0154A536823F40033A1680B4339
:102BBC005360DCE7002018E0002016E0012B16D053
:102BCC000E4B5B6803F48031226A914211D103F4FD
:102BDC007013626A93420ED1002006E00120704708
:102BEC00012002E0012000E0002002B070BD0120B5
:102BFC00FBE70120F9E70120F7E700BF00100240D6
:102C0C00000042420F4B5B6803F00C02082A01D013
:102C1C000D487047C3F383420C49885C13F4803F22
:102C2C000BD0084B5B68C3F34043094AD35C064A9C
:102C3C0002FB00F0B0FBF3F07047064B03FB00F017
:102C4C00704700BF0010024000127A000C6D0008A3
:102C5C00086D000800093D00002800F0A08070B548
:102C6C000D460446524B1B6803F007038B420BD2F4
:102C7C004F4A136823F007030B431360136803F0E8
:102C8C0007038B4240F08D80236813F0020F17D09E
:102C9C0013F0040F04D0474A536843F4E0635360C5
:102CAC00236813F0080F04D0424A536843F460536E
:102CBC005360404A536823F0F003A1680B43536000
:102CCC00236813F0010F31D06368012B20D0022B45
:102CDC0025D0384A126812F0020F64D035494A6880
:102CEC0022F0030213434B60FFF7CAFB0646314B3D
:102CFC005B6803F00C036268B3EB820F16D0FFF72E
:102D0C00BFFB801B41F288339842F0D9032045E089
:102D1C00284A126812F4003FE0D101203EE0254A17
:102D2C00126812F0007FD9D1012037E0204B1B68CC
:102D3C0003F00703AB420AD91D4A136823F00703BB
:102D4C002B431360136803F00703AB422DD12368A8
:102D5C0013F0040F06D0174A536823F4E063E168BC
:102D6C000B435360236813F0080F07D0114A5368C4
:102D7C0023F46053216943EAC1035360FFF742FF18
:102D8C000C4B5B68C3F303130B4AD35CD8400B4B5F
:102D9C0018600B4B1868FFF72FFB002070BD01204B
:102DAC0070470120FAE70120F8E70120F6E700BFA1
:102DBC000020024000100240F86C00080C000020BB
:102DCC0014000020014B1868704700BF0C00002055
:102DDC0008B5FFF7F7FF044B5B68C3F30223034A04
:102DEC00D35CD84008BD00BF00100240F06C000856
:102DFC0008B5FFF7E7FF044B5B68C3F3C223034A34
:102E0C00D35CD84008BD00BF00100240F06C000835
:102E1C0008B502284ED0102803D0012828D0002055
:102E2C0052E02B4B5A68186810F080704CD0C2F3EB
:102E3C0083432849C85C12F4803F15D0244B5B684F
:102E4C00C3F34043244AD25C244BB3FBF2F303FBA1
:102E5C0000F01F4B5B6813F4800F35D14000204B02
:102E6C00A3FB003040082FE01E4B03FB00F0F0E703
:102E7C00174B1B6A40F202321A40B2F5817F24D004
:102E8C0003F44073B3F5007F04D0B3F5407F09D051
:102E9C00002019E00E4A526A12F0020FF5D049F6E2
:102EAC00404011E00A4B186810F400300CD04FF27F
:102EBC00244009E0FFF79CFF054B5B68C3F38133AB
:102ECC0001335B00B0FBF3F008BD4FF40040FBE7AF
:102EDC0000100240206D00081C6D000800127A00E2
:102EEC00ABAAAAAA00093D00044B0022DA61044AED
:102EFC00136943F00103136101807047700B0020CC
:102F0C0000200240194BDB6813F0100305D0184A5F
:102F1C00D36943F00203D3611023144AD26812F030
:102F2C00040F06D01249CA6942F00102CA6143F08B
:102F3C0004030E4AD26912F0010F09D00C49CA6978
:102F4C0042F00402CA610949CA6922F00102CA614D
:102F5C0040F20112934202D0044AD3607047034AF4
:102F6C00D36923F00103D361704700BF00200240F6
:102F7C00700B00200A4B1B6913F0800F0BD0084B11
:102F8C00084A5A6002F188325A601B6913F0800FAC
:102F9C0003D100207047002070470120704700BF0C
:102FAC000020024023016745034A136943F0800364
:102FBC0013610020704700BF0020024038B5044662
:102FCC00FFF75EFA0546164BDB6813F0010F0AD0CB
:102FDC00B4F1FF3FF7D024B1FFF752FA401BA042E7
:102FEC00F1D903201BE00E4BDB6813F0200F02D04D
:102FFC000B4B2022DA600A4BDB6813F0100F0BD15D
:10300C00074BDB6913F0010F06D1054BDB6813F09E
:10301C00040F01D1002002E0FFF774FF012038BD3E
:10302C00002002402DE9F8431E46244B1B7E012B49
:10303C0041D004460F469046204B01221A764CF2A2
:10304C005030FFF7BBFF034678BB012C08D0022C95
:10305C0003D04FF004091C4607E04FF00209FAE7D1
:10306C004FF00109F7E70134E4B24C451DD22101C0
:10307C00C1F12002A1F1200328FA01F106FA02F2B3
:10308C00114326FA03F3194389B207EB4400FFF707
:10309C002BFF4CF25030FFF791FF094B1D6925F0C7
:1030AC0001051D6103460028DDD0044A002111767C
:1030BC001846BDE8F8830223FAE700BF700B002026
:1030CC0000200240064B0022DA61064B1A6942F0DE
:1030DC0004021A611A6942F040021A61704700BF7B
:1030EC00700B002000200240064B0022DA61064BD8
:1030FC001A6942F002021A6158611A6942F04002E0
:10310C001A617047700B002000200240264B1B7E7A
:10311C00012B46D070B505460E46234B01221A767C
:10312C000368022B20D04CF25030FFF747FF90BBC6
:10313C004FF0FF333360AC680121EA68AB6803EBF6
:10314C008223A34228D92046FFF7CEFF4CF2503001
:10315C00FFF734FF154A136923F00203136101468C
:10316C00B8B904F58064E8E74CF25030FFF726FF5D
:10317C0008B1012110E00120FFF7A4FF4CF2503000
:10318C00FFF71CFF0146094A136923F0040313617E
:10319C0002E0346000E00121034B00221A7608465D
:1031AC0070BD022108467047700B002000200240C1
:1031BC00F0B583B005460C4600230193FFF760F988
:1031CC002B689A6812F4807F23D107465A6812F450
:1031DC00807F03D1DB6A13F4700F29D0504B1E682B
:1031EC000220FFF715FEB6FBF0F62B6819694D4A65
:1031FC00114236D1D96802F15C42114231D11969C0
:10320C00494A114240D1DA68484B1A423ED0292330
:10321C0041E0AB6A43F02003AB62002385F8243015
:10322C00012003B0F0BD2B681B6813F0020F0FD008
:10323C002B681B6813F0020F4FD1B4F1FF3FF7D08E
:10324C00002CF0D0FFF71CF9C31BA342F0D9EAE71E
:10325C00AB6A43F00403AB62002385F824300320EF
:10326C00DFE71969304A114204D1D96802F16E4284
:10327C0011420DD019692E4A0A405AB9DA682C4B02
:10328C0013405BB1FC2306E0292304E0142302E085
:10329C00542300E0FC2303FB06F607E05423FAE773
:1032AC00019BB34210D3019B01330193019BB342A9
:1032BC0013D2B4F1FF3FF6D0002CF1D0FFF7E0F8B9
:1032CC00C01BA042EFD9EBE7AB6A43F00403AB623F
:1032DC00002385F824300320A3E72B686FF012023B
:1032EC001A60AB6A43F40073AB622B689B6803F4FF
:1032FC006023B3F5602F01D0002092E7287B60B9E2
:10330C00AB6A23F48073AB62AB6A13F4805F88D131
:10331C00AB6A43F00103AB6283E7002081E700BF97
:10332C000C00002024499224922449129224490032
:10333C00499224000368D86C7047000030B482B006
:10334C000022019290F82420012A00F08F8003467D
:10335C00012280F824204A68062A2DD80468606B64
:10336C0002EB8202053A4FF01F0C0CFA02FC20EA29
:10337C000C000D6805FA02F2024362630A68092A1E
:10338C0038D91C68E06802EB42021E3A4FF0070C79
:10339C000CFA02FC20EA0C008D6805FA02F20243DA
:1033AC00E2600A68103A012A34D90020002283F81E
:1033BC00242002B030BC70470C2A0DD80568286B4D
:1033CC0002EB8202233A1F24944020EA04000C688A
:1033DC00944020432863D1E70568E86A02EB820237
:1033EC00413A1F24944020EA04000C689440204386
:1033FC00E862C3E71C68206902EB42024FF0070C3D
:10340C000CFA02FC20EA0C008D6805FA02F2024369
:10341C002261C6E71A681648824205D09A6A42F0C1
:10342C0020029A620120C1E7906810F4000F1BD1B2
:10343C00906840F4000090600A68102A01D00020C7
:10344C00B4E70C4A12680C49A1FB0212920C02EB75
:10345C0082025200019202E0019A013A0192019A11
:10346C00002AF9D10020A1E700209FE70220A0E765
:10347C00002401400C00002083DE1B4330B583B0D8
:10348C000023019303689A6812F0010F33D10446AC
:10349C009A6842F001029A60184B1B68184AA2FB0A
:1034AC0003239B0C019302E0019B013B0193019BC5
:1034BC00002BF9D1FEF7E4FF054623689B6813F057
:1034CC00010F16D1FEF7DCFF431B022BF5D9236845
:1034DC009B6813F0010FF0D1A36A43F01003A362B1
:1034EC00E36A43F00103E362002384F824300120F3
:1034FC0002E0002000E0002003B030BD0C000020F2
:10350C0083DE1B4390F82430012B68D010B50446A1
:10351C00012380F82430FFF7B1FF00285BD1A36AA8
:10352C0023F4407323F0010343F48073A3622368F4
:10353C002C4A934227D0A26A22F48012A2625A68C3
:10354C0012F4806F05D0A26A22F4405242F48052E9
:10355C00A262A26A12F4805F2BD0E26A22F0060209
:10356C00E262002284F824206FF002021A602368C1
:10357C009A6802F46022B2F5602F1DD09A6842F46A
:10358C0080129A602AE0A2F58062526812F4702FC1
:10359C00D1D0A26A42F48012A262134A526812F489
:1035AC00806FD6D0A26A22F4405242F48052A262BA
:1035BC00CFE70022E262D4E70A4A934204D09A6829
:1035CC0042F4A0029A6009E0A2F58062526812F4FB
:1035DC00702FD3D1F3E7002384F8243010BD0220E0
:1035EC00704700BF002801400024014038B5036833
:1035FC009A6812F0010F01D1002038BD04469A6878
:10360C0022F001029A60FEF73BFF054623689B6897
:10361C0013F0010F13D0FEF733FF431B022BF5D928
:10362C0023689B6813F0010FF0D0A36A43F01003DA
:10363C00A362E36A43F00103E3620120DDE70020AB
:10364C00DBE7000000287BD070B50446836A002BB2
:10365C004DD02046FFF7CAFFA36A13F0100369D1BF
:10366C00002867D1A26A22F4885222F0020242F0AA
:10367C000202A2626268E1690A43217B42EA4102CA
:10368C00A568B5F5807F02D0012D36D01D46267D6C
:10369C00012E35D02668716821F469412943716087
:1036AC002568AE68274931401143A960A168B1F57E
:1036BC00807F01D0012902D12369013B1B052568BC
:1036CC00E96A21F470010B43EB62236899681E4B85
:1036DC000B409A4225D0A36A23F0120343F0100347
:1036EC00A362E36A43F00103E362012027E0C362B3
:1036FC0080F82430FEF70AFEABE74FF48075C6E77E
:10370C0031B9A169013945EA413141F40065C1E79C
:10371C00A16A41F02001A162E16A41F00101E1627C
:10372C00B8E70023E362A36A23F0030343F0010329
:10373C00A36204E0A36A43F01003A362012070BDEE
:10374C0001207047FDF7E1FFFE0E1FFF90F82430BB
:10375C00012B13D010B50446012380F82430FFF759
:10376C0045FF38B9A36A23F4885323F0010343F0CF
:10377C000103A362002384F8243010BD022070479B
:10378C0003685A6912F4806F01D1002070476FF4FE
:10379C0080625A6100230363202280F83D2080F868
:1037AC003E30026C42F00402026480F83C3001208E
:1037BC0070472DE9F04106460C46174698463BE00B
:1037CC00FEF75EFE069BC01A404502D8B8F1000F0A
:1037DC0032D1012D18D033689B6924EA03039BB2C4
:1037EC00B3FA83F35B099F4226D100233363202273
:1037FC0086F83D2086F83E30326C42F0200232646E
:10380C0086F83C30012027E033685B6924EA030327
:10381C009BB2B3FA83F35B09E5E733685B6924EA8F
:10382C00030C1FFA8CFCBCFA8CFC4FEA5C1C674541
:10383C0011D1B8F1FF3FC3D1C4F30745012DECD032
:10384C0033689B6924EA030C1FFA8CFCBCFA8CFCD1
:10385C004FEA5C1CEBE70020BDE8F0812DE9F84352
:10386C0005460E469046994653E01A6842F400729B
:10387C001A602B686FF480625A6100232B6320223C
:10388C0085F83D2085F83E302A6C42F004022A640B
:10389C0085F83C3001204AE0FEF7F2FDA0EB090070
:1038AC00404502D8B8F1000F33D1012F17D02B6847
:1038BC009B6926EA03039BB2003B18BF012343B369
:1038CC0000232B63202285F83D2085F83E302A6C9E
:1038DC0042F020022A6485F83C30012027E02B6856
:1038EC005B6926EA03039BB2003B18BF0123E6E7A2
:1038FC002B689C6926EA0404A4B2003C18BF01247E
:10390C00A4B12B685A6912F4806FAED1B8F1FF3FA5
:10391C00C2D1C6F30747012FEAD12B685C6926EAAE
:10392C000404A4B2003C18BF0124E9E70020BDE860
:10393C00F8830000F0B583B004460D4616461F46CA
:10394C00C36A082B0DD0012B0BD013F5803F08D088
:10395C00036B122B0AD10268136843F48073136053
:10396C0004E02268136843F48073136000973346B5
:10397C0000224FF001112046FFF71BFF80B923698D
:10398C00B3F5804F16D1236805F0FE051D613B464B
:10399C00324613492046FFF761FFF8B903B0F0BD7A
:1039AC0023681B6813F4807F02D04FF400732364E8
:1039BC000320F3E7EB11226803F0060343F0F00356
:1039CC0013613B46324607492046FFF747FF18B9BB
:1039DC002368EDB21D61DAE70120DFE70120DDE7A6
:1039EC00020001000800010070B504460D461646A1
:1039FC0023685B6913F0800F21D12046FFF7C0FECE
:103A0C00F8B9B5F1FF3FF3D0FEF73AFD801BA842A1
:103A1C0001D8002DECD123685B6913F0800FE7D13E
:103A2C0000232363202284F83D2084F83E30226C4E
:103A3C0042F02002226484F83C30012000E0002097
:103A4C0070BD0120FCE770B504460D461646236890
:103A5C005B6913F0040F21D12046FFF791FEF8B9F2
:103A6C00B5F1FF3FF3D0FEF70BFD801BA84201D848
:103A7C00002DECD123685B6913F0040FE7D1002310
:103A8C002363202284F83D2084F83E30226C42F0DF
:103A9C002002226484F83C30012000E0002070BD3C
:103AAC000120FCE7002800F0CC8070B5044690F8AB
:103ABC003D30002B77D0242384F83D3022681368E6
:103ACC0023F0010313602268136843F4004313606E
:103ADC002268136823F400431360FFF779F96268D6
:103AEC005A4B9A4264D85A4B98428CBF00230123FC
:103AFC00002B40F0A8805749A1FB00318B0C2568A6
:103B0C006A6822F03F0242EA91426A6021680A6ABE
:103B1C0022F03F0266684D4DAE424FD8013313433D
:103B2C000B622168CA6922F44F4222F0FF026568D9
:103B3C00464B9D424CD8431E6D00B3FBF5F301334D
:103B4C0040F6FC70034278D0C3F30B031A43CA61EE
:103B5C0021680B6823F0C003E269206A0243134317
:103B6C000B6021688B6823F4034323F0FF03226965
:103B7C00E068024313438B602168CB6823F0FF039A
:103B8C006269A06902431343CB602268136843F057
:103B9C000103136000202064202384F83D3020634F
:103BAC0084F83E0070BD80F83C30FEF7C5FB82E720
:103BBC00294B98428CBF0023012399E74FF496754B
:103BCC0005FB03F3254DA5FB03539B090133A6E726
:103BDC00A668BEB9431E05EB450CB3FBFCF30133E1
:103BEC00C3F30B03B3FA83F35B0943BBC6B9431EA0
:103BFC0005EB4505B3FBF5F30133C3F30B0343F4BA
:103C0C000043A3E7431E05EB850C0CEB8C0CB3FBBC
:103C1C00FCF30133C3F30B03B3FA83F35B09E4E75F
:103C2C00431E05EB850505EB8505B3FBF5F3013369
:103C3C00C3F30B0343F4404388E7042386E70123D3
:103C4C0084E7012070470120ACE700BFA08601008B
:103C5C007F841E0083DE1B43FF083D00D34D6210A2
:103C6C002DE9F04385B004460F46904699460C9ECC
:103C7C00FEF706FC94F83D10202904D002273846A4
:103C8C0005B0BDE8F08305460090192301224F4989
:103C9C002046FFF78EFD002840F0928094F83C30CF
:103CAC00012B00F08F80012384F83C3023681A68C4
:103CBC0012F0010F03D11A6842F001021A60226857
:103CCC00136823F400631360212384F83D30102320
:103CDC0084F83E3000232364C4F82480A4F82A908E
:103CEC00638D23853A4BE3622B4632463946204698
:103CFC00FFF720FE0746002866D1002303932368B4
:103D0C005A6903929B690393039B11E0236C042B68
:103D1C0001D00127B3E72268136843F400731360E2
:103D2C00F7E72A4631462046FFF78DFE00282ED1B4
:103D3C00238D002B36D02A4631462046FFF754FE01
:103D4C000028E3D1626A236812781A61606A431C06
:103D5C006362618D89B2013989B26185238D013B22
:103D6C009BB223852268516911F0040FD9D0002B26
:103D7C00D7D043781361636A01336362638D9BB25E
:103D8C00013B9BB26385238D013B2385C9E7236CE3
:103D9C00042B01D0012772E72268136843F40073E7
:103DAC001360F7E72268136843F400731360202351
:103DBC0084F83D30002384F83E3084F83C305EE7D4
:103DCC0002275CE702275AE7012758E70200100098
:103DDC000000FFFF2DE9F04782B0054688461746E4
:103DEC001E46FEF74DFB0A9B1B1A03EB0609FEF75A
:103DFC0047FB8246284B1B68C3F3CB3309FB03F309
:103E0C0001932B689C6838EA04040CBF012300233F
:103E1C00BB423DD0B6F1FF3FF3D0FEF731FBA0EB38
:103E2C000A00484507D2019A02B14A46019B013B60
:103E3C0001939146E5E72A68536823F0E003536049
:103E4C006B68B3F5827F0BD0AB6AB3F5005F14D00F
:103E5C00012385F85130002385F85030032018E0F9
:103E6C00AB68B3F5004F02D0B3F5806FECD12A6884
:103E7C00136823F040031360E6E72A68136823F401
:103E8C00005313602A68136843F400531360DFE790
:103E9C00002002B0BDE8F0870C00002070B582B0A5
:103EAC0006460C46154600920B4601220221FFF7EE
:103EBC0091FF48B900952346002280213046FFF738
:103ECC0089FF38B902B070BD736D43F02003736580
:103EDC000320F7E7736D43F0200373650320F1E7CC
:103EEC00002856D010B50446436A33B94368B3F57D
:103EFC00827F05D00023C36102E00023036143618C
:103F0C000023A36294F85130002B3CD0022384F898
:103F1C0051302268136823F040031360636803F484
:103F2C008273A26802F404421343E26802F4006252
:103F3C001343226902F002021343626902F0010288
:103F4C001343A26902F400721343E26902F03802CF
:103F5C001343226A02F080021343A26A02F4005255
:103F6C00216813430B60638B226803F004035360D6
:103F7C002268D36923F40063D361002060650123B8
:103F8C0084F8513010BD84F850302046FEF7EAF921
:103F9C00BCE7012070472DE9F04383B00446884606
:103FAC0091461F460A9DFEF76BFA064694F851306F
:103FBC006268012B0BD0D9B2B2F5827F40F004813C
:103FCC00A368002B40F00481042940F00381B8F170
:103FDC00000F00F00181B9F1000F00F0FF80002FFD
:103FEC0000F0FE8094F85030012B00F0FB80012390
:103FFC0084F8503094F85130042B02D0052384F807
:10400C00513000236365C4F83890E787A787C4F85C
:10401C003080E786A7862364636423681A6812F0ED
:10402C00400F03D11A6842F040021A60E368B3F5FE
:10403C00006F11D063680BB1012F0BD1226B236879
:10404C0012781A73236B01332363E38E9BB2013B0B
:10405C009BB2E386012771E063680BB1012F0BD192
:10406C00226B23681288DA60236B02332363E38E9E
:10407C009BB2013B9BB2E38601271BE023689A6845
:10408C0012F0010F0ED0E28F92B25AB1DA68A36B24
:10409C001A80A36B0233A363E38F9BB2013B9BB2E9
:1040AC00E3870127FEF7ECF9801BA84202D3B5F198
:1040BC00FF3F1ED1E38E9BB21BB9E38F9BB2002B4B
:1040CC0062D023689A6812F0020FD7D0E28E92B2B7
:1040DC00002AD3D0002FD1D0226B1288DA60236B48
:1040EC0002332363E38E9BB2013B9BB2E386002732
:1040FC00C4E7012384F85130002384F850300320A6
:10410C0063E023689A6812F0010F0ED0E28F92B22E
:10411C005AB1DA68A36B1A70A36B0133A363E38FF4
:10412C009BB2013B9BB2E3870127FEF7A9F9831BE6
:10413C00AB4202D3B5F1FF3F1ED1EDB1E38E9BB282
:10414C0013B9E38F9BB2FBB123689A6812F0020F8C
:10415C00D7D0E28E92B2002AD3D0002FD1D0226BCE
:10416C0012781A73236B01332363E38E9BB2013BEA
:10417C009BB2E3860027C4E7012384F85130002367
:10418C0084F85030032020E0324629462046FFF7C1
:10419C0085FE90B9A36833B901932368DA6801925C
:1041AC009B680193019B012384F85130002384F810
:1041BC005030636D4BB1012007E020236365002371
:1041CC0084F85030012000E0022003B0BDE8F083F9
:1041DC000220FAE70220F8E70120F6E70120F4E7D5
:1041EC000120F2E70220F0E7026802F10C0353E829
:1041FC00003F23F490730C3242E800310029F3D1D4
:10420C00026802F1140353E8003F23F00103143257
:10421C0042E800310029F3D1036B012B05D0202398
:10422C0080F84230002303637047026802F10C03EC
:10423C0053E8003F23F010030C3242E80031002910
:10424C00F3D1ECE710B504460268136923F440532C
:10425C00C1680B43136183680269134342691A43B3
:10426C000168CB6823F4B05323F00C031343CB60E9
:10427C000268536923F4407381690B4353610268EC
:10428C00134B9A4220D0FEF7A3FD024602EB8202AA
:10429C0002EB820263689B00B2FBF3F20D48A0FBB9
:1042AC0002314909642303FB11231B013233A0FBA8
:1042BC0003035B0903F0F00202EB011203F00F039E
:1042CC00216813448B6010BDFEF792FD0246DDE7BA
:1042DC00003801401F85EB512DE9F04383B00546B2
:1042EC000E4617469946DDF828802B681C6836EA7E
:1042FC0004040CBF01240024BC4228D1B8F1FF3FB8
:10430C00F3D0FEF7BDF8A0EB0900404523D8B8F177
:10431C00000F22D02B68DA6812F0040FE5D0802E43
:10432C00E3D0402EE1D01A6812F0080FDDD0002443
:10433C0001941A6801925B680193019B2846FFF770
:10434C0053FF08236B6485F84040012000E00020F7
:10435C0003B0BDE8F0830320FAE70320F8E760B36D
:10436C0010B5044690F8413013B3242384F841303F
:10437C002268D36823F40053D3602046FFF762FF12
:10438C002268136923F4904313612268536923F064
:10439C002A0353612268D36843F40053D36000208E
:1043AC006064202384F8413084F84230606310BD8F
:1043BC0080F84030FDF7ECFFD7E7012070472DE97E
:1043CC00F04182B01E4690F84130202B56D1044665
:1043DC000D469046002955D00AB901204FE0002324
:1043EC004364212380F84130FEF74AF80746A4F8CD
:1043FC002480A4F82680A368B3F5805F02D04FF028
:10440C00000814E023692BB34FF000080FE02023C1
:10441C0084F84130032032E038F8023B2268C3F3C1
:10442C0008035360E28C92B2013A92B2E284E38CBC
:10443C009BB293B100963B46002280212046FFF7A9
:10444C004BFF0028E3D1002DE6D015F8012B236893
:10445C005A60E7E7A8460025E9E700963B460022AC
:10446C0040212046FFF738FF18B9202384F841304B
:10447C0005E0202384F84130032000E0022002B044
:10448C00BDE8F0810120FAE72DE9F04182B01E462B
:10449C0090F84230202B5AD104460D469046002904
:1044AC0059D00AB9012053E000234364222280F83A
:1044BC0042200363FDF7E4FF0746A4F82C80A4F820
:1044CC002E80A368B3F5805F02D04FF000081AE08D
:1044DC002369002B33D04FF0000814E0202384F81C
:1044EC004230032034E023685B68C3F3080328F8E8
:1044FC00023B03E023685B682B700135E28D92B2BE
:10450C00013A92B2E285E38D9BB2DBB100963B4659
:10451C00002220212046FFF7DFFE0028DED1002DEF
:10452C00E1D0A368B3F5805FE4D013B92369002B05
:10453C00E0D023685B6803F07F032B70DDE7A846AF
:10454C000025E0E7202384F84230002000E0022020
:10455C0002B0BDE8F0810120FAE704E011F8012B6C
:10456C0000F8012B1A46531E002AF7D1704702E0BF
:10457C0000F8011B1A46531E002AF9D1704710B4DB
:10458C00034600201446013A34B113F8010B11F81C
:10459C0001CBB0EB0C00F5D010BC7047034600E02B
:1045AC000133187808B18842FAD170470246C87EA8
:1045BC008B7E43EA002092F80032032B00D0704728
:1045CC004A7D0B7D43EA022340EA0340F7E78176FC
:1045DC00C1F30723C376C1F307430375090E417575
:1045EC00704700002DE9F84F89460C6800E0013453
:1045FC0023782F2BFBD05C2BF9D0D0F818A20B22F0
:10460C0020215046FFF7B3FF002633464FF0080831
:10461C00374619E0BF00FFB246464FF00B0812E0D8
:10462C0015F0800F25D129463148FFF7B7FF002838
:10463C005AD1A5F14103DBB2192B20D847F0020760
:10464C000AF8065001365B4603F1010BE55C202DA0
:10465C001FD92F2D1DD05C2D1BD02E2D01D0B04578
:10466C00DED8B8F1080F3DD12E2DD3D00620BDE8F1
:10467C00F88F47F00307803D1E4B5D5DD3E7A5F136
:10468C006103DBB2192BDBD847F00107203DEDB2FB
:10469C00D6E75C44C9F80040202D14D804232EB36F
:1046AC009AF80020E52A10D0B8F1080F11D007F0C5
:1046BC000302012A10D007F00C07042F0FD08AF840
:1046CC000B300020D3E70023E9E705228AF800200D
:1046DC00EAE7BF00FFB2EEE743F01003EBE743F06D
:1046EC000803ECE70620C2E70620C0E70620BEE779
:1046FC00B86B0008306D00080146006838B10246FE
:10470C001378202B06D93A2B04D00132F8E74FF05E
:10471C00FF3070473A2B01D000207047034613F846
:10472C00010B3038092808D89A4202D04FF0FF30DC
:10473C00704728B901320A6070474FF0FF3070475C
:10474C004FF0FF307047F8B590F804520DB9284679
:10475C00F8BD0446D0F82C7201233A46014690F875
:10476C00010201F055FB0546D0B9002384F8043250
:10477C00D4F82032FB1AD4F818229342E7D294F8DA
:10478C0003620AE0D4F818321F4401233A4621464A
:10479C0094F8010201F03CFB013E012EF2D8D6E761
:1047AC000125D4E770B5D0F82C328B4202D100260B
:1047BC00304670BD04460D46FFF7C5FF064600287F
:1047CC00F6D101232A46214694F8010201F0EEFAB3
:1047DC0010B101264FF0FF35C4F82C52E8E7000069
:1047EC0010B50446002380F804324FF0FF33C0F8B4
:1047FC002C32FFF7D7FF98BB024694F8FF1194F8C0
:10480C00FE3143EA01231BB217498B422AD194F89B
:10481C00391094F838301B0443EA016394F83710CC
:10482C0043EA012394F836100B4323F07F430F49DE
:10483C008B4213D094F8551094F854301B0443EA6F
:10484C00016394F8531043EA012394F852100B437C
:10485C0023F07F4305498B4200D00122104610BD46
:10486C000322FBE70222F9E755AAFFFF4641540059
:10487C00B0B108B5D0F8003243B193F8001229B1A9
:10488C00B3F80612B0F80422914201D0092008BDF9
:10489C0093F8010201F0CEF910F00100F7D0F5E722
:1048AC00092070472DE9F04385B0054617460023D3
:1048BC0003600846FFF720FF061EC0F29A819D4B4D
:1048CC0053F82640002C00F099812C6094F80032AB
:1048DC007BB194F8010201F0ADF910F0010508D19B
:1048EC00002F00F0878110F0040F00F083810A255F
:1048FC0080E1002384F80032F0B284F8010201F068
:10490C00A1F910F0010F40F07B811FB110F0040FE2
:10491C0040F0788100212046FFF762FF0546012810
:10492C0000F095800027032D00F06E81002D40F0E3
:10493C006D81227BE37A43EA02231BB2B3F5007F3D
:10494C0040F06681E27DA37D53EA02230DD194F8F9
:10495C00272094F826301B0443EA026394F82520A0
:10496C0043EA022394F824201343C4F81832217C20
:10497C0084F803124A1ED2B2012A00F24B8103FBC7
:10498C0001F1607B84F80202002800F04581421E90
:10499C00104240F04381A67C627C42EA0622164615
:1049AC00A4F8082212F00F0F40F03A8194F814C0CA
:1049BC00E27C52EA0C220ED194F823C094F8222007
:1049CC00120442EA0C6294F821C042EA0C2294F8D8
:1049DC0020C042EA0C0294F80FE094F80EC05CEA96
:1049EC000E2C00F01F810CEB010909EB16194A453E
:1049FC00C0F01A81A2EB0902B2FBF0FE8242C0F0B9
:104A0C00158140F6F57296453AD94FF6F5729645F2
:104A1C0074D84FF0020835E0002304AA02EB81029F
:104A2C0042F8103C0131032913D80B0103F5DF7355
:104A3C0023441A79002AEFD0D87A9A7A120442EADF
:104A4C000062587A42EA00221B7A1343E5E7002100
:104A5C00E9E700260BE039462046FFF7C1FE054684
:104A6C0000283FF460AF0136032E3FF65CAF04AB79
:104A7C0003EB860353F8107C002FECD10225F2E7F0
:104A8C004FF001080EF1020EC4F814E2C4F81C72C7
:104A9C000CEB0702C4F8202207EB0900C4F828022B
:104AAC00B8F1030F2DD0002E00F0C4800A44C4F8D6
:104ABC002422B8F1020F3AD00EEB4E010EF0010297
:104ACC0002EB510202F2FF12B3EB522FC0F0B48092
:104ADC004FF0FF33C4F81032C4F80C32802384F842
:104AEC000532B8F1030F29D084F80082124A1388DA
:104AFC0001339BB21380A4F806327BE04FF003081D
:104B0C00C0E7002E40F0948094F82F1094F82E20DB
:104B1C00120442EA016294F82D1042EA012294F840
:104B2C002C100A43C4F824224FEA8E02CAE74FEA3B
:104B3C004E02C7E7940B0020900B002094F8312014
:104B4C0094F8303043EA02231BB2012BCCD1791CF0
:104B5C002046FFF727FE0028C6D1002384F8053233
:104B6C0094F8FF2194F8FE3143EA02231BB2334A36
:104B7C009342B9D1E278A3781B0443EA02636278CA
:104B8C0043EA0223227813432D4A9342ACD194F882
:104B9C00E72194F8E6311B0443EA026394F8E5211B
:104BAC0043EA022394F8E4211343264A93429BD10F
:104BBC0094F8EB2194F8EA311B0443EA026394F86D
:104BCC00E92143EA022394F8E8211343C4F8103294
:104BDC0094F8EF2194F8EE311B0443EA026394F845
:104BEC00ED2143EA022394F8EC211343C4F80C3270
:104BFC007AE70B25284605B0BDE8F0830C25F9E7CC
:104C0C000325F7E70A25F5E70125F3E70D25F1E77D
:104C1C000D25EFE70D25EDE70D25EBE70D25E9E774
:104C2C000D25E7E70D25E5E70D25E3E70D25E1E784
:104C3C000D25DFE70D25DDE70D25DBE755AAFFFF89
:104C4C00525261417272416138B50446FFF77BFDE7
:104C5C00054658B994F80032032B09D000221146AE
:104C6C0094F8010201F006F900B10125284638BD7F
:104C7C0094F80532012BF1D14FF40072002120463B
:104C8C00FFF775FC552384F8FE31AA2384F8FF3115
:104C9C005223237063706123A3704122E27072214E
:104CAC0084F8E41184F8E51184F8E62184F8E731FE
:104CBC00D4F8103284F8E831C3F3072284F8E921E0
:104CCC00C3F3074284F8EA211B0E84F8EB31D4F8C5
:104CDC000C3284F8EC31C3F3072284F8ED21C3F3D2
:104CEC00074284F8EE211B0E84F8EF31D4F81C2215
:104CFC000132C4F82C220123214694F8010201F060
:104D0C0087F8002384F80532A8E70239D0F814326A
:104D1C00023B8B4206D990F80232D0F8280201FBF4
:104D2C00030070470020704701295CD9F8B505468F
:104D3C000C46D0F814328B4257D990F80032022B23
:104D4C0029D0032B37D0012B51D101EB5106D0F8D0
:104D5C00201201EB5621FFF725FD10B14FF0FF306B
:104D6C0044E0771CC6F30806AE5DD5F8201201EBC3
:104D7C0057212846FFF716FD00283AD1C7F308073C
:104D8C00EB5D46EA032014F0010F01D000092DE081
:104D9C00C0F30B002AE0D0F8201201EB1421FFF72E
:104DAC0001FD48BB640004F4FF742B195B78285D8B
:104DBC0040EA03201AE0D0F8201201EBD411FFF7DF
:104DCC00F1FCE0B9A40004F4FE742B19DA7898789D
:104DDC00000440EA02605B7840EA03202B5D184334
:104DEC0020F0704002E0012070470120F8BD012046
:104DFC00FCE74FF0FF30F9E74FF0FF30F6E74FF0EC
:104E0C00FF30F3E7F8B50746A0F80612D0F80842D1
:104E1C00012C44D00E46D0F80032D3F81422A24212
:104E2C003FD9F4B993F80022032A17D0CCB9B3F8C0
:104E3C000822B24237D9D3F82402C7F80C42D0B3B7
:104E4C0000EB1610C7F81002D7F8003206F00F016D
:104E5C0003EB4113C7F814320020F8BDD3F82442F9
:104E6C00E4E793F802522D01AE4212D32146D7F853
:104E7C000002FFF759FF0446B0F1FF3F15D001289F
:104E8C0015D9D7F80032D3F81432834211D9761BD6
:104E9C00EAE72146D7F80002FFF737FFCDE70220FB
:104EAC00DBE70220D9E70220D7E70120D5E7022073
:104EBC00D3E70220D1E70220CFE701297CD92DE9E5
:104ECC00F04105460C461646D0F814328B4275D983
:104EDC0090F80032022B3CD0032B4DD0012B70D11B
:104EEC0001EB5107D0F8201201EB5721FFF75AFCC8
:104EFC00002864D107F10108C7F3080714F0010476
:104F0C001DD0EB5D03F00F0343EA0613DBB2EB5548
:104F1C00012385F80432D5F8201201EB58212846DC
:104F2C00FFF740FC00284AD1C8F308084CB1C6F37F
:104F3C00071305F80830012385F804323FE0F3B27B
:104F4C00E5E715F80830C6F3032223F00F031343EB
:104F5C00EFE7D0F8201201EB1421FFF723FC70BB14
:104F6C00640004F4FF742B192E55C6F307225A70F3
:104F7C00012385F8043222E0D0F8201201EBD41181
:104F8C00FFF710FCD8B9A40004F4FE742919CA78F0
:104F9C008B781B0443EA026303F0704333432E55B2
:104FAC00C6F307224A70C6F307428A701B0ECB70F9
:104FBC00012385F8043202E0022070470220BDE88C
:104FCC00F0810220FBE7F8B505460F4641B9D0F851
:104FDC000C629EB1D0F81432B34210D801260EE008
:104FEC00FFF7A2FE034601284BD9B0F1FF3F4DD08D
:104FFC00D5F81422824249D83E4600E001263446B8
:10500C000CE021462846FFF78FFE034678B1B0F13D
:10501C00FF3F3BD0012839D0B44236D00134D5F80B
:10502C001432A342EDD8012E2DD90224E9E76FF0FA
:10503C00704221462846FFF740FF0346D0B997B986
:10504C00C3B9C5F80C42D5F81032B3F1FF3F1FD0ED
:10505C00013BC5F8103295F8053243F0010385F891
:10506C000532234612E0224639462846FFF725FF33
:10507C000346E5E7012B01D0012307E04FF0FF3396
:10508C0004E0012302E0002300E000231846F8BDF1
:10509C002346FBE72DE9F843B0F806526B1C9AB295
:1050AC00002A00F0838004460F46D0F81022002A14
:1050BC007ED013F00F060BD10132C0F81022D0F8BD
:1050CC000C1289B9D0F80022B2F808229A4271D990
:1050DC000135A4F80652D4F8003203EB4613C4F899
:1050EC0014320020BDE8F883D0F8000290F80222B8
:1050FC00013A12EA1318EBD1FFF716FE814601288C
:10510C005AD9B0F1FF3F59D0D4F80002D0F814327C
:10511C004B4541D8002F53D0D4F80C12FFF753FF56
:10512C00814600284ED001284ED0B0F1FF3F4DD023
:10513C00D4F80002FFF707FB08B10120D2E74FF4C7
:10514C0000720021D4F80002FFF711FAD4F80072B3
:10515C0049463846FFF7D9FDC7F82C02D4F800327F
:10516C0093F80222424511D9012283F80422D4F883
:10517C000002FFF7E8FA58BBD4F80022D2F82C3220
:10518C000133C2F82C3208F10108E7E7D3F82C22DE
:10519C00A2EB0802C3F82C22C4F80C924946D4F8AE
:1051AC000002FFF7B2FDC4F8100291E7042099E762
:1051BC00042097E7042095E7022093E7012091E76C
:1051CC0004208FE707208DE702208BE7012089E779
:1051DC00012087E738B504460021FFF713FE05468A
:1051EC0040B1284638BD00212046FFF753FF054645
:1051FC000028F6D1D4F81012D4F80002FFF7D2FA36
:10520C0005460028EDD1D4F8140203785BB1C37ABB
:10521C0013F0080FE7D10B22D4F81812FFF7AFF9EF
:10522C000028E0D1DDE70425DBE710B582B00446A9
:10523C0001910B782F2B01D05C2B01D10131019105
:10524C000023C4F80832019B1B781F2B1DD901A920
:10525C002046FFF7C7F90346F8B92046FFF7BAFF17
:10526C00D4F81832DA7A0346D0B912F0040F14D1FC
:10527C00D4F81412CB7A13F0100F18D0D4F8000213
:10528C00FFF794F9C4F80802E1E700212046FFF784
:10529C00B9FD03460022C4F81422184602B010BD12
:1052AC000428FAD112F0040FF7D10523F5E70523F2
:1052BC00F3E770B504460E460021FFF7A3FD024646
:1052CC00D8B9002508E00135B54216D00121204699
:1052DC00FFF7E0FE024680B9D4F81012D4F80002B1
:1052EC00FFF760FA024640B9D4F814321B78E52B6C
:1052FC00E9D0002BE7D00025E8E7042A01D01046BE
:10530C0070BD0722FBE738B504460121FFF7D1FF3A
:10531C00054608B1284638BDD4F81012D4F800025E
:10532C00FFF740FA05460028F4D120220021D4F8DA
:10533C001402FFF71CF90B22D4F81812D4F814023B
:10534C00FFF70BF9D4F80032012283F80422E1E7CD
:10535C00F8B501292DD904460D46D0F814328B42EC
:10536C002AD9002700E03546D4F81432AB4221D9B3
:10537C0029462046FFF7D8FC0646D8B101281DD097
:10538C00B0F1FF3F1CD0002229462046FFF795FDC7
:10539C00074678B9D4F81032B3F1FF3FE3D00133AC
:1053AC00C4F8103294F8053243F0010384F8053246
:1053BC00D9E702273846F8BD0227FBE70227F9E7B1
:1053CC000127F7E710B584B00190009114460391C2
:1053DC0003A8FFF791F900281ADB0F4B53F8203084
:1053EC0013B1002283F80022019B13B1002283F831
:1053FC000022094A42F8203063B1012C02D000206F
:10540C0004B010BD0022694601A8FFF74BFAF7E77C
:10541C000B20F5E70020F3E7940B00202DE9F04773
:10542C00ADF50C7D0191002800F0BE8014460646B7
:10543C000023C0F8003202F01F0702F01E0201A97F
:10544C0085A8FFF72FFA054620B128460DF50C7DEF
:10545C00BDE8F08705AD02AB8B9301992846FFF7A9
:10546C00E4FEDDF82882054610B9B8F1000F46D0ED
:10547C0014F01C0F54D0002D48D0042D41D047F00F
:10548C000807DDF82882002DDFD117F0080F57D060
:10549C00002488F80E4088F80F40E12388F810307B
:1054AC005C2388F8113088F80B4088F81C4088F889
:1054BC001D4088F81E4088F81F4041468598FFF72C
:1054CC0075F8814621464046FFF781F885980123FF
:1054DC0080F80432B9F1000F32D0D0F82C42494692
:1054EC00FFF736FF05460028AFD1859809F1FF3349
:1054FC00C0F80C322146FFF755F9054620E0062589
:10550C00B6E705A8FFF7FFFE0546B8E798F80B309D
:10551C0013F0110F13D114F0040FB4D0082594E735
:10552C00002D92D198F80B3013F0100F3ED114F0DF
:10553C00020F05D013F0010F02D0072585E70725D0
:10554C00002D82D117F0080F01D047F02007859C61
:10555C00D4F82C32C6F81C32C6F8208286F80672B3
:10556C00002786F8077241462046FFF71FF8C6F859
:10557C00100298F81F2098F81E301B0443EA0263AF
:10558C0098F81D2043EA022398F81C201343C6F810
:10559C000C32C6F80872C6F81872C6F80042B4F895
:1055AC000632A6F8043250E709254EE704254CE7ED
:1055BC002DE9F04F83B004460F461546984600235C
:1055CC00C8F80030FFF754F90190002850D194F836
:1055DC0007320193002B4BD194F8063213F0020FD3
:1055EC0000F0F880D4F80832EB42C0F0B680002509
:1055FC00B3E0D4F81412FFF7E6FC0346002B00F0DE
:10560C00DA80012B38D0B3F1FF3F3CD0C4F8143210
:10561C00D4F810220AB9C4F8103294F8063213F0F8
:10562C00400F37D1D4F800B2D4F814125846FFF713
:10563C006CFB8146002846D0B1444FEA552AB5F59B
:10564C00007F5ED306EB0A039BF80222934201D93A
:10565C00A2EB060A53464A4639469BF8010200F073
:10566C00D7FBB8B34FF0010A84F807A2CDF804A019
:10567C00019803B0BDE8F08F4FF0020A84F807A23E
:10568C00CDF804A0F4E74FF0010A84F807A2CDF896
:10569C0004A0EDE7D4F800020123D4F81822214627
:1056AC0090F8010200F0B4FB30B994F8063223F004
:1056BC00400384F80632B5E74FF0010A84F807A2DC
:1056CC00CDF804A0D4E74FF0020A84F807A2CDF875
:1056DC0004A0CDE7D4F81812A1EB0901514502D36F
:1056EC004FEA4A262DE04FF4007207EB4121204689
:1056FC00FEF733FF94F8063223F0400384F80632A9
:10570C00EEE7D4F818324B4505D0D4F80822D4F87B
:10571C000C329A423FD3C4F81892D4F80802C0F362
:10572C000800C0F50076B54200D22E463246394606
:10573C002044FEF712FF94F8063243F0400384F83D
:10574C0006323744D4F808323344C4F80832D8F857
:10575C0000303344C8F80030AD1B65B3D4F80832C0
:10576C00C3F30802002AD8D1D4F8000290F80262E0
:10577C00013EF6B216EA53267FF44FAF002B7FF4AE
:10578C0038AFD4F81032002B7FF43BAF0021FFF779
:10579C001AFC034632E701234A4621469BF80102D4
:1057AC0000F004FB0028B6D04FF0010A84F807A2E1
:1057BC00CDF804A05CE7D4F80832D4F80C2293425C
:1057CC0001D9C4F80C3294F8063243F0200384F863
:1057DC0006324DE7072301934AE738B50446FFF735
:1057EC0047F8F8B994F8063213F0200F1AD013F0DA
:1057FC00400F10D0D4F800020123D4F8182221460F
:10580C0090F8010200F004FBF0BB94F8063223F090
:10581C00400384F80632D4F81C12D4F80002FEF7C8
:10582C00C1FF00B138BDD4F82052EB7A43F020030D
:10583C00EB7294F80C322B77B4F80C321B0A6B77A2
:10584C0094F80E32AB7794F80F32EB77D4F8101241
:10585C002846FEF7BCFE0023AB75EB75E1222A76D9
:10586C005C226A76AB74EB7494F8063223F0200356
:10587C0084F80632D4F80032012283F80422D4F8DA
:10588C000002FFF7E1F9CDE70120CBE710B50446A4
:10589C00FFF7A3FF00B110BD2046FEF7E9FF00287B
:1058AC00F9D1C4F80002F6E72DE9F04104460D46A3
:1058BC00FEF7DEFF8046002840F0DC8094F80732CB
:1058CC00002B40F0D680D4F80C32AB4205D294F8C1
:1058DC00062212F0020F00D11D46D4F808620023F4
:1058EC00C4F80832FDB1D4F8000290F802727F02BD
:1058FC007EB16B1EB3FBF7F3013EB6FBF7F293429E
:10590C0007D37B421E40C4F80862AE1BD4F8145275
:10591C0007E0D4F81032002B40D0C4F814322E46D5
:10592C001D46002D69D1D4F80832C3F3080333B3F4
:10593C00D4F81822AA4222D094F8063213F0400F61
:10594C0010D0D4F800020123214690F8010200F097
:10595C005FFA002840F0838094F8063223F040036D
:10596C0084F80632D4F8000201232A46214690F826
:10597C00010200F01BFA002876D1C4F81852D4F8B2
:10598C000832D4F80C22934274D9C4F80C3294F82F
:10599C00063243F0200384F806326BE00021FFF757
:1059AC0012FB0346012805D0B0F1FF3F07D0C4F825
:1059BC001002B2E74FF0020884F807825AE04FF069
:1059CC00010884F8078255E02946D4F80002FFF755
:1059DC00ABF90546B5F1FF3F30D0012D33D9D4F8E2
:1059EC000032D3F81432AB422DD9C4F81452D4F887
:1059FC0008323B44C4F80832F61BBE420DD994F869
:105A0C00063213F0020FDFD02946D4F80002FFF75C
:105A1C00DAFA05460028DDD13E46D4F80832334484
:105A2C00C4F80832C6F30803BBB12946D4F8000207
:105A3C00FFF76BF960B100EB562574E74FF00108E6
:105A4C0084F8078216E04FF0020884F8078211E010
:105A5C004FF0020884F807820CE01D4663E74FF014
:105A6C00010884F8078205E04FF0010884F80782EA
:105A7C0000E098464046BDE8F081000000B587B0D4
:105A8C008DF80F00FF238DF817306423009301234A
:105A9C000DF117020DF10F010348FEF77CFA9DF88A
:105AAC00170007B05DF804FB8C0A002038B50546DA
:105ABC00FCF7E6FC0446FF20FFF7E0FFFF2806D0CA
:105ACC00FCF7DEFC001BA842F5D3002000E001200F
